:020000040800F2
:1000000058080020890100089B1F0008191C0008DF
:10001000991F0008F10200088D240008000000006C
:100020000000000000000000000000009F1F00080A
:1000300001030008000000009D1F0008A11F000828
:10004000A3010008A3010008A3010008A301000800
:10005000A3010008A3010008A3010008A3010008F0
:10006000A3010008A3010008A3010008F50200088D
:10007000A3010008A3010008A3010008A3010008D0
:10008000A3010008A301000891020008A3010008D1
:10009000A3010008A3010008A3010008A3010008B0
:1000A000A3010008A3010008A3010008A3010008A0
:1000B0002520000831200008A3010008A301000842
:1000C000A3010008A3010008A3010008A301000880
:1000D000A301000881240008A3010008A30100086F
:1000E000A3010008A3010008A301000800F002F822
:1000F00000F03AF80AA090E8000C82448344AAF188
:100100000107DA4501D100F02FF8AFF2090EBAE885
:100110000F0013F0010F18BFFB1A43F0010318473B
:10012000E023000000240000103A24BF78C878C102
:10013000FAD8520724BF30C830C144BF04680C60ED
:10014000704700000023002400250026103A28BF35
:1001500078C1FBD8520728BF30C148BF0B60704739
:100160001FB51FBD10B510BD00F058F81146FFF7C0
:10017000F7FF02F09CF900F076F803B4FFF7F2FF06
:1001800003BC00F07DF8000009488047094800479B
:10019000FEE7FEE7FEE7FEE7FEE7FEE7FEE7FEE737
:1001A000FEE7FEE704480549054A064B7047000094
:1001B00021200008ED000008580200205808002007
:1001C00058040020580400204FF0000200B51346E8
:1001D00094469646203922BFA0E80C50A0E80C5067
:1001E000B1F12001BFF4F7AF090728BFA0E80C5018
:1001F00048BF0CC05DF804EB890028BF40F8042B11
:1002000008BF704748BF20F8022B11F0804F18BF7D
:1002100000F8012B7047704770477047754600F033
:100220002BF8AE4605006946534620F00700854688
:1002300018B020B5FFF7B6FFBDE820404FF000062C
:100240004FF000074FF000084FF0000B21F00701BE
:10025000AC46ACE8C009ACE8C009ACE8C009ACE801
:10026000C0098D46704710B50446AFF300802046A4
:10027000BDE81040FFF781BF00487047F80100203B
:1002800001491820ABBEFEE72600020070470000BF
:10029000014800F0CAB800002400002070B50446F0
:1002A00000688168C943C90716D1816821F001013E
:1002B000816000F04DFC054609E000F049FC401B60
:1002C000022804D920688068C043C00706D020688F
:1002D0008068C043C007F0D0002070BDA06A40F025
:1002E0001000A062E06A40F00100E062012070BDF1
:1002F000FEE70000014800F059BA00005400002059
:10030000704772B6FEE77047F8B50023009390F887
:1003100024201C46012A12D0012280F824204A6899
:100320001F26072A0DD205686F6B521E02EB820250
:100330009640B7430E68964037436F6319E002203A
:10034000F8BD05680D2A0AD22F6BD21F02EB82027C
:100350009640B7430E68964037432F6309E0EF6A33
:100360000D3A02EB82029640B7430E68964037433F
:10037000EF620A68072605680A2A0AD3EF680A3A74
:1003800002EB42029640B7438E6896403743EF60D7
:1003900008E02F6902EB42029640B7438E68964010
:1003A00037432F610A68102A01D0112A20D1124D3B
:1003B0000268AA4217D195682D0219D4956845F4B0
:1003C000000595600968102912D10C490C4A09688A
:1003D000B1FBF2F101EB8101490000E0491E0091FF
:1003E0000029FBD104E0816A41F0200181620123F0
:1003F00080F824401846F8BD002401400C0000207D
:1004000040420F00054910B5884205D100F00AF8B6
:10041000034948800120087010BD0000240000201E
:100420001C0000200068C06C704770B5044600686E
:1004300006684568A90625D5B10723D5A16AC9066E
:1004400003D4A16A41F40071A1628168C1F3424101
:10045000072910D1217B71B9416821F02001416049
:10046000A06A20F48070A062A06AC00403D4A06ACD
:1004700040F00100A0622046FFF7C4FF21686FF042
:100480001200086028062ED570072CD5A06AC00679
:1004900003D4A06A40F40050A06220688168C1F3D0
:1004A0000231072909D04168490515D48168C1F393
:1004B0004241072910D1217B71B9416821F08001A7
:1004C0004160A06A20F48050A062A06AC00503D4F5
:1004D000A06A40F00100A0622046FFF714FF2168E7
:1004E0006FF00C00086068060CD5F0070AD0A06A0F
:1004F00040F48030A062204600F094F821686FF04C
:100500000100086070BD00002DE9F0414FF00006C9
:10051000040035467DD0A06A002728B9E76284F838
:100520002470204600F080F82046FFF7B7FEA16A4D
:10053000C90600D420B1A06A40F01000A06268E0B3
:10054000A16A21F4885141F00201A1626268E16967
:10055000237B0A4346EA43010A43A1684FF48076AD
:10056000B14208D0012906D0002194F814C0BCF192
:10057000010F02D00AE03146F7E7F3B1A36A43F076
:100580002003A362E36A43F00103E3622368D3F824
:1005900004C02CF4694C4CEA010CC3F804C0216877
:1005A0008B68DFF874C003EA0C0313438B60A16807
:1005B000B1420BD0012909D00CE0DFF860C0A3697B
:1005C0000CEB43330B4343F40061DFE7218A0D0555
:1005D000A5F580152168CB6A23F470032B43CB6209
:1005E000216889680E4B1940914208D1E762A16ADF
:1005F00021F0020141F00101A162BDE8F081A06A91
:1006000020F0020040F01000A062E06A40F001001B
:10061000E0620120F1E70000FDF7E1FF00E0FFFFED
:10062000FE0E1FFF7047000070B586B0002406461E
:10063000009401940294039400681E49884236D1C4
:100640001D49886940F400708861886900F4007071
:100650000490886940F0040088618869694600F068
:10066000040004900220009003200190134800F041
:1006700077F9144D1248C5E900048020C5E902400D
:1006800040002861800068612020C5E906042846F2
:1006900000F038F908B1FFF734FE35620022114648
:1006A00012206E6200F0C0FA122000F0AFFA06B01D
:1006B00070BD00000024014000100240000801400D
:1006C000080002405400002010B590F821100022CC
:1006D000022905D00421816380F82020012010BD6B
:1006E00001680B6823F00E030B6001680B6823F0B0
:1006F00001030B6090F84030012404FA03F1C36B4E
:10070000596080F8214080F82020104610BD00007C
:1007100010B590F821100024022903D00421816330
:1007200001243DE001680A6822F00E020A600168B7
:100730000A6822F001020A601A4A0168914201D156
:10074000012121E0174A1432914201D110211BE00E
:10075000144A2832914201D1891515E0114A3C32E0
:10076000914201D189140FE00E4A5032914202D1D8
:100770004FF4803108E00B4A6432914202D14FF4C9
:10078000801101E04FF08071064A083A5160012162
:1007900080F82110002180F82010416B01B18847BA
:1007A000204610BD08000240806B70472DE9F05FC5
:1007B000C16B0B6801680A68046C4FF0040C0CFAFA
:1007C00004FC4A4DDFF828A14A4E4B4FDFF82CB10C
:1007D000DFF82CE11CEA030F2DD05FEA427C2AD51A
:1007E0000A68920603D40A6822F004020A600168CB
:1007F000A94201D1042119E0514501D1402115E060
:10080000B14202D14FF4806110E0B94202D14FF4FD
:1008100080410BE0594502D14FF4802106E071453B
:1008200002D14FF4800101E04FF080612F4A083A75
:100830005160C16A3BE04FF0020808FA04F818EA78
:10084000030F4FF000094FF0010C35D05FEA8278BA
:1008500032D50A68920605D40A6822F00A020A60B4
:1008600080F821C00168A94201D1022119E0514557
:1008700001D1202115E0B14202D14FF4007110E006
:10088000B94202D14FF400510BE0594502D14FF467
:10089000003106E0714502D14FF4001101E04FF044
:1008A0000071124A083A516080F82090816A00294C
:1008B0001AD0BDE8F05F08470825A5401D4213D0B7
:1008C000120711D50A6822F00E020A6090F8401053
:1008D000C26B0CFA01F15160C0F838C080F821C039
:1008E00080F82090016BE2E7BDE8F09F080002402D
:1008F0001C00024030000240440002405800024008
:100900006C00024030B528B302C8134A14230A44CD
:10091000B2FBF3F29200C263104A82630222427772
:100920000B6843F6F0729343D0E900242243D0E9E8
:1009300002452C43224304692243446922438469CB
:1009400022431A430A600021416301224277017762
:10095000084630BD012030BDF8FFFDBF0000024059
:100960002DE9F84FDFF8A4910024A9F1040B2346E8
:100970004FF00F0809F1040AABF1040EBEE00127A5
:10098000A7403A40BA4272D1DFF884C14D68A5EB66
:100990000C0665452BD00DDC032D34D005DC35B3BA
:1009A000012D19D0022D2FD11BE0112D16D0122DA3
:1009B0002AD119E0B6F5881F19D006DCB6F5803FBC
:1009C00015D0B6F5801F1FD111E0B6F5001F0ED06F
:1009D000B6F5041F18D10AE0CB6815E0CB681B1DE3
:1009E00012E0CB6808330FE0CB680C330CE08B6867
:1009F0002BB1012B4FF0080303D0476104E004231F
:100A000002E0076100E00023FF2A01D8064601E06A
:100A100000F104064FEA840501D9A5F120053768E5
:100A200008FA05FC27EA0C0703FA05F547EA05076B
:100A300037604D68ED0060D5364DAE6946F0010671
:100A4000AE61AD6924F0030605F001050095324D55
:100A50007719BE68A5072D0F08FA05FC26EA0C06D3
:100A6000DFF8B8C0604503D14FF0000C17E044E058
:100A7000DFF8ACC0604502D14FF0010C0FE0DFF8A9
:100A8000A4C0604502D14FF0020C08E0DFF898C026
:100A9000604502D14FF0030C01E04FF0040C0CFA5A
:100AA00005FC4CEA060CC7F808C04D68D9F8006090
:100AB000ED024D4601D5164300E096432E604D6889
:100AC000DAF80060AD02554601D5164300E09643C2
:100AD0002E604D68DBF80060AD035D4601D516431E
:100AE00000E096432E604D68DEF80060ED03754629
:100AF00001D5164300E096432E60641C0A6832FA62
:100B000004F57FF43CAFBDE8F88F00000804014015
:100B100000001110001002400000014000080140D8
:100B2000000C0140001001400014014080680840A2
:100B300000D001207047C26821EA02030A4043EA5C
:100B40000241016170470AB1016170470904FBE786
:100B5000014880687047000000000020024881685A
:100B6000027811448160704700000020074810B5EA
:100B7000016841F010010160032000F075F80F20BA
:100B800000F006F800F024F8002010BD002002401C
:100B900070B50D4D04464FF47A712878B1FBF0F032
:100BA0000A490968B1FBF0F000F056FB48B9102C77
:100BB00007D200222146501E00F036F800206C605B
:100BC00070BD012070BD0000000000200C0000205E
:100BD0000C4808B5816941F001018161816901F02A
:100BE00001010091C16941F08051C161C0690649AC
:100BF00000F080500090486820F0E06040F0007005
:100C0000486008BD0010024000000140002809DBD8
:100C100000F01F02012191404009800000F1E02016
:100C2000C0F8001170470000F0B40E4B1B68C3F30E
:100C30000223C3F10704042C00D904241D1D072D31
:100C400001D2002300E0DB1E012606FA04F56D1E2A
:100C50000D409D409E40761E164045EA0601F0BCC0
:100C600001F015BC0CED00E0064A00F00701106829
:100C70004FF6FF03184040EA012003490843106083
:100C8000704700000CED00E00000FA052DE9F84384
:100C900004460078344FC00752D0F8690025C000E0
:100CA00008D4F86940F08050F861F869012500F037
:100CB000805000902D480168C90511D40168804614
:100CC00041F480710160FFF743FF064604E0FFF73F
:100CD0003FFF801B642822D8D8F80000C005F6D555
:100CE000386A10F4407020D0A18801F4407181422C
:100CF0001BD0386A1E49012220F440700A6000228D
:100D00000A603862C00710D0FFF722FF064641F2A2
:100D1000883807E0FFF71CFF811B414502D90320FB
:100D2000BDE8F883386A8007F4D5386A616820F432
:100D30004070084338621DB1F86920F08050F861B6
:100D40002078800705D57868A16820F440400843E2
:100D500078602078C00605D57868E16820F48000C6
:100D6000084378600020DBE700100240007000407C
:100D7000400442422DE9F0470D46040067D0DFF8F9
:100D80001881D8F8000000F00700A8420CD2D8F86B
:100D9000001021F007012943C8F80010D8F800001E
:100DA00000F00700A84252D120683C4E810712D5BE
:100DB000400703D5706840F4E06070602078000759
:100DC00003D5706840F4605070607068A16820F0CE
:100DD000F000084370602078C00727D060680128C1
:100DE00010D03168022810D0890700292FDA7168E5
:100DF00021F0030101437160FFF7AAFE074641F2AB
:100E000088390CE031688903EFE78901EDE7FFF7E6
:100E10009FFEC11B494502D90320BDE8F0877068D9
:100E2000616800F00C00B0EB810FF0D1D8F8001031
:100E3000404601F00701A9420BD9016821F00701E2
:100E400029430160006800F00700A84201D001209A
:100E5000E3E72078400705D57068E16820F4E0609A
:100E6000084370602078000706D57068216920F477
:100E7000605040EAC100706000F038F87168084ABC
:100E8000C1F30311515CC840064908600648006878
:100E9000FFF77EFE0020C0E7002002400010024065
:100EA000E62400080C000020040000200448054946
:100EB00000684968044AC1F30221515CC840704788
:100EC0000C00002000100240F624000804480549E8
:100ED00000684968044AC1F3C221515CC8407047A8
:100EE0000C00002000100240F62400080F4A516850
:100EF00001F00C00042803D0082803D00C487047E8
:100F00000C4870470C48C1F38343C903C05C0AD541
:100F10005168094AC1F34041921E515C054A504351
:100F2000B0FBF1F07047054948437047001002409C
:100F300000127A000024F400D624000800093D00C5
:100F40002DE9F84F04006FD02078BE4DC00747D080
:100F50006868C0F38100012807D06868C0F3810089
:100F6000022809D16868C00306D52868800337D5F0
:100F700060680028E7D033E06068B0F5803F0BD0B0
:100F800010B1B0F5A02F11D0286820F4803028606F
:100F9000286820F4802002E0286840F4803028602F
:100FA000606888B1FFF7D4FD064609E0286840F480
:100FB00080202860F0E7FFF7CBFD801B642873D802
:100FC00028688003F7D50BE0FFF7C2FD064604E072
:100FD000FFF7BEFD801B6428F1D828688003F7D492
:100FE0002078DFF8648280074FF0010A4FF0000993
:100FF00039D5686810F00C0F07D06868C0F381001D
:10100000022809D16868C00306D42868800714D56F
:101010002069012808D110E02069B0B1C8F800A00B
:10102000FFF796FD064605E007E1FFF791FD801BFF
:101030000228C4D828688007F7D52868616920F09D
:10104000F80040EAC10028600DE0C8F80090FFF702
:101050007FFD064604E0FFF77BFD801B022823D8B6
:1010600028688007F7D4207800072CD57748A16935
:10107000D9B1C0F800A0FFF76BFD064604E0FFF70A
:1010800067FD801B02280FD8686A8007F7D5704873
:101090004FF4FA510068B0FBF1F0009000BF0098E7
:1010A000411E0091FAD20EE07CE0C0F80090FFF7FC
:1010B0004FFD064604E0FFF74BFD801B022871D868
:1010C000686A8007F7D4207840075BD5E869002775
:1010D000C00008D4E86940F08050E861E869012761
:1010E00000F0805000905B480168C90511D4016888
:1010F000834641F480710160FFF72AFD064604E053
:10110000FFF726FD801B64284CD8DBF80000C005E3
:10111000F6D5E06801280AD008B1052813D0286A5E
:1011200020F001002862286A20F0040002E0286A0A
:1011300040F001002862E06841F2883B88B1FFF787
:1011400007FD064609E0286A40F004002862EEE741
:10115000FFF7FEFC811B59455BD8286A8007F7D54D
:101160000BE0FFF7F5FC064604E0FFF7F1FC811BFE
:1011700059454ED8286A8007F7D41FB1E86920F096
:101180008050E861E069A8B36968C1F38101022970
:1011900046D00228484606D0C8F86000FFF7D8FCC1
:1011A000044639E035E04746C8F86000FFF7D0FC58
:1011B000064604E0FFF7CCFC801B022829D82868EB
:1011C0008001F7D4206AB0F5803F05D16868A16836
:1011D00020F4003008436860D4E9080108436968D6
:1011E00021F4741108436860C7F860A0FFF7B0FCF1
:1011F000044605E023E0FFF7ABFC001B022808D8FB
:1012000028688001F7D51AE0FFF7A2FC001B02282E
:1012100002D90320BDE8F88F28688001F4D40EE0DD
:101220000128F7D06868226A00F48031914204D125
:10123000616A00F47010884201D00120EAE70020C2
:10124000E8E70000001002400000424280044242F1
:101250000C0000200070004010B5401EB0F1807FEF
:1012600001D3012010BD4FF0E02460610F21601711
:1012700001F00DF90020A06107202061002010BDC1
:101280007047704710B590F83C20012A22D0012207
:1012900080F83C20CA688C6822F4407222434C6873
:1012A00022F4806222430C6822F4006222430C691B
:1012B00022F4805222434C6922F400522243C9692D
:1012C000002322F480420A4301684A6480F83C30DB
:1012D000002010BD022010BD70B590F83C20012AFE
:1012E00026D0012580F83C50022280F83D2002687B
:1012F0005368946823F070060B68334353600D4BBA
:1013000002689A4208D0B2F1804F05D00A4B9A4247
:1013100002D00A4B9A4204D1496824F08003194351
:10132000916080F83D50002180F83C10084670BD67
:10133000022070BD002C0140000400400008004065
:1013400010B5040003D094F83D0010B107E001206F
:1013500010BD002084F83C00204600F01FF8022059
:1013600084F83D00211D206800F068FE012084F80B
:10137000460084F83E0084F83F0084F8400084F87A
:10138000410084F8420084F8430084F8440084F863
:10139000450084F83D00002010BD000008B500683D
:1013A000194A1A49904208D1886940F4006088615E
:1013B000886900F40060009008BDB0F1804F14D03F
:1013C000134A9042F8D1C86940F00200C861C86968
:1013D000002200F00200009011461D20FFF724FCBF
:1013E0001D20BDE80840FFF711BCC86940F00100AE
:1013F000C861C869002200F00100009011461C205D
:10140000FFF712FC1C20ECE7002C0140001002400A
:101410000004004070B5044690F83C000025012807
:1014200017D0012684F83C60022084F83D00206833
:10143000826822F0770222F47F4282600868502896
:1014400038D00DDC20284FD005DC90B3102811D106
:101450004AE0022070BD302846D040280AD13BE047
:1014600060282FD070280DD0B0F5805F03D0B0F584
:10147000005F12D0012584F83D60002084F83C0014
:10148000284670BDCB68D1E90121206800F012FE2A
:101490002068816841F0770109E0CB68D1E901213A
:1014A000206800F007FE2068816841F48041816077
:1014B000E1E719E0CA684968206800F0B5FE5021EC
:1014C000206806E0CA684968206800F0BEFE602116
:1014D000206800F0F9FDCEE7CA684968206800F08E
:1014E000A3FE40212068F4E7226801461046F0E799
:1014F00070472DE9F04104460068C66805694FF061
:101500000007A90713D5B10711D5F91E0161012004
:101510002077206880698007204602D0FFF7E8FF27
:1015200004E000F0A5F8204600F037F927776807B7
:1015300016D5700714D521686FF0040008610220E9
:1015400020772068806910F4407F204602D0FFF7A2
:10155000CFFF04E000F08CF8204600F01EF927775A
:10156000280715D5300713D521686FF008000861EA
:10157000042020772068C0698007204602D0FFF74A
:10158000B7FF04E000F074F8204600F006F9277772
:10159000E80616D5F00614D521686FF01000086132
:1015A000082020772068C06910F4407F204602D0D0
:1015B000FFF79EFF04E000F05BF8204600F0EDF836
:1015C0002777E80708D0F00706D021686FF0010000
:1015D0000861204600F0E2F8280608D5300606D556
:1015E00021686FF0800008612046FFF749FE680619
:1015F00008D5700606D521686FF0400008612046C6
:1016000000F0E0F8A8060AD5B00608D521686FF00A
:10161000200008612046BDE8F041FFF732BEBDE87A
:10162000F081000000B585B0002100910191029188
:10163000039100680B49884212D10B48816941F03F
:10164000040181618069694600F0040004904FF450
:10165000807000900220019003900448FFF780F909
:1016600005B000BD002C0140001002400008014000
:10167000704770B5044690F83C0000260D460128DE
:101680000FD0012084F83C006AB1042A1DD0082A3A
:101690002FD00C2A3FD00126002084F83C00304691
:1016A00070BD022070BD206800F016FD20688169C1
:1016B00041F0080181612068816921F004018161A4
:1016C000206881692A69114311E0206800F030FD2B
:1016D0002068816941F4006181612068816921F499
:1016E00080618161206881692A6941EA0221816102
:1016F000D2E7206800F04AFD2068C16941F0080186
:10170000C1612068C16921F00401C1612068C1691B
:101710002A69114311E0206800F064FD2068C16966
:1017200041F40061C1612068C16921F48061C16137
:101730002068C1692A6941EA0221C161ACE710B59C
:10174000040003D094F83D0010B107E0012010BD63
:10175000002084F83C00204600F01EF8022084F8A7
:101760003D00211D206800F069FC012084F846003E
:1017700084F83E0084F83F0084F8400084F841007B
:1017800084F8420084F8430084F8440084F845005B
:1017900084F83D00002010BD7047704710B5044626
:1017A00000680749884201D100F090FA2068B0F142
:1017B000804F03D1BDE8104000F03ABA10BD0000E0
:1017C000000400407047000010B5064A0C469042E5
:1017D00006D1104600F00AF8034844800121017048
:1017E00010BD0000700100201800002070B50446F4
:1017F00020680C3050E8001F21F4907140E800127E
:10180000002AF5D12068143050E8001F21F00101B2
:1018100040E80012002AF5D1206B012809D1206888
:101820000C3050E8001F21F0100140E80012002A9F
:10183000F5D1206840694FF00005400615D52068B5
:10184000143050E8001F21F0400140E80012002A47
:10185000F5D1E06B48B14563E06BFEF735FF20B191
:10186000E06BFEF7A1FF202806D0E585202084F854
:1018700042002563002070BD10206064032070BD0D
:101880000649884208D10649002008704880402255
:101890000449024800F0B0B9704700007001002010
:1018A00018000020B8010020F8B501680446086857
:1018B000CA684B6910F00F0F4FF0000559D003F0C4
:1018C000010602F49077374365D0C10705D0D105F2
:1018D00003D5616C41F001016164410705D5D90769
:1018E00003D0616C41F002016164810705D5D9071D
:1018F00003D0616C41F004016164010707D502F077
:101900002001314303D0616C41F008016164616CD6
:1019100000293AD0800604D5900602D5204600F072
:10192000D5FC20684069616CC0F38010090700D4C1
:1019300060B3204600F0A3FC20684069400621D532
:101940002068143050E8001F21F0400140E80012E8
:10195000002AF5D1E06BA8B16D494163E06BFEF759
:10196000D7FE002811D0E06B416B01B0BDE8F0401C
:10197000084783060FD593060DD52046BDE8F840ED
:1019800000F0A4BC2046FFF77BFFF8BD2046FFF720
:1019900077FF6564F8BD266B2023012E7CD1C60637
:1019A0007AD5D60678D508684868009048694FF01F
:1019B0000206400640D5E16B086840680004000C50
:1019C000E8D0A28D8242E5D9E085886920282DD013
:1019D00020680C3050E8001F21F4807140E80012AC
:1019E000002AF5D12068143050E8001F21F00101D1
:1019F00040E80012002AF5D12068143050E8001F9A
:101A000021F0400140E80012002AF5D184F842306C
:101A1000256320680C3050E8001F21F0100140E8D9
:101A20000012002AF5D1E06BFEF74EFE6663A08D32
:101A3000E18D401A81B22AE0A08DE18D401A81B279
:101A4000E08D0028A6D00029A4D020680C3050E8F2
:101A5000002F22F4907240E80027002FF5D1206873
:101A6000143050E8002F22F0010240E80027002F38
:101A7000F5D184F84230256320680C3050E8002FFF
:101A800022F0100240E80023002BF5D166632046C7
:101A9000FFF79AFEF8BDFFE705062BD5150629D5F9
:101AA00094F841002128F5D1A068B0F5805F01D1FC
:101AB0002069B0B1206A411C216221680078486029
:101AC000E08C401E0004000CE084E3D12068C16873
:101AD00021F08001C1602068C16841F04001C1600F
:101AE000D8E7206A0088C0F308004860206A801C9C
:101AF0002062E5E74006CDD55006CBD5CA68204622
:101B000022F04002CA6084F8413000F084F8C1E756
:101B10006F22000870B5040004D094F8410000253D
:101B200010B106E0012070BD84F84050204600F05E
:101B300023F8242084F841002068C16821F4005172
:101B4000C160204600F024FC2068016921F4904126
:101B500001612068416921F02A0141612068C16862
:101B600041F40051C1606564202084F8410084F88C
:101B700042006563002070BD30B585B0002400943C
:101B80000194029403940068184988422CD11848A3
:101B9000816941F480418161816901F4804104914E
:101BA000816941F0040181618069124D00F00400F7
:101BB00004904FF4007000900220019003200390E5
:101BC00069462846FEF7CCFE2815CDE90004694693
:101BD00028460294FEF7C4FE002211462520FFF796
:101BE00023F82520FFF712F805B030BD003801407A
:101BF000001002400008014090F84230202B01D034
:101C00000220704721B11AB10023036300F01CBC0D
:101C10000120704770477047FEE7000008B10120BF
:101C2000704701210148FEF781BF00000008014014
:101C30002DE9F05FDFF890B00024ABF1010AAAF1C2
:101C4000010909F1060726460125A7F103082046E8
:101C5000FFF7E4FF18B119F80410F9B125E01AF8FC
:101C60000400401CC0B20AF80400022825D319F869
:101C70000410012905D109F804600BF8045027F875
:101C8000146037F81400401C80B227F81400C828EC
:101C900013D308F804500BF804600EE018F8041091
:101CA000012902D10849891C0D550AF8046009F878
:101CB000045027F8146008F80460641C14F0FF0452
:101CC000C5D0BDE8F09F0000120000204FF4005185
:101CD0000148FEF730BF0000001001403EB5002172
:101CE0001148009101910F4A0291026081600173D5
:101CF000017501244FF460220461C2614160FEF766
:101D000003FC08B1FEF7FDFA02200094CDE9014082
:101D100069460548FEF7F8FA002801D0FEF7F1FA07
:101D20003EBD00000024014024000020094808B501
:101D3000416941F0010141614069002200F0010068
:101D4000009011460B20FEF76FFFBDE808400B2006
:101D5000FEF75CBF0010024030B585B00020009057
:101D60000190029003901648816941F01001816151
:101D7000816901F010010491816941F020018161C4
:101D8000816901F020010491816941F004018161C0
:101D900080690C4D00F004004FF4005404900022C0
:101DA00021462846FEF7CFFE01210220CDE9021090
:101DB000CDE9004169462846FEF7D2FD05B030BDA9
:101DC000001002400010014010B596B000240F949E
:101DD00010941194129413941C2108A81494FEF7E3
:101DE000F3F920216846FEF7EFF9294827490160F9
:101DF0004721C0E9011440F2E731C0E9031444610E
:101E00008461FFF79DFA08B1FEF77BFA4FF480502A
:101E10000F900FA91E48FFF7FDFA08B1FEF771FAFF
:101E20001B48FFF78CFC08B1FEF76BFA139413A95B
:101E300017481494FFF750FA08B1FEF762FA6020D1
:101E400008904FF4FA70CDE909040B940C940D94AA
:101E5000002208A90E480E94FFF70BFC08B1FEF70C
:101E600050FA00944FF40050CDE9044002940194DC
:101E70000394694606480794FFF704FA08B1FEF791
:101E800040FA0348FFF7CEFB16B010BD002C01400E
:101E90009800002010B586B00024164800940194E4
:101EA0000294039404944FF080410594016041F63C
:101EB0001F41C0E901146321C0E903148461FFF7E5
:101EC0003FFA08B1FEF71DFA4FF4805000906946C2
:101ED0000848FFF79FFA08B1FEF713FA049404A923
:101EE00004480594FFF7F8F9002801D0FEF709FA35
:101EF00006B010BDE000002010B586B000241748E1
:101F0000009401940294039404941349059401608D
:101F100041F61F41C0E9011440F6C311C0E90314A2
:101F20008461FFF70DFA08B1FEF7EBF94FF480502A
:101F3000009069460948FFF76DFA08B1FEF7E1F92C
:101F4000049404A905480594FFF7C6F9002801D0B8
:101F5000FEF7D7F906B010BD0004004028010020AC
:101F60000C4810B50A4901604FF4E131416000218D
:101F700081600C22C160C0E904128161C161FFF778
:101F8000C9FD002803D0BDE81040FEF7BAB910BD66
:101F90000038014070010020FEE7FEE770477047FF
:101FA000FEF7DCBD30B593B028216846FEF70CF98A
:101FB00014210AA8FEF708F90024012108040F944F
:101FC0001094CDE90010119442001294029202255F
:101FD0000491CDE907504FF4E01009906846FEF7F0
:101FE000AFFF08B172B6FEE70F20CDE90A054FF446
:101FF0008060CDE90C4002210AA80E94FEF7BAFEDB
:1020000008B172B6FEE74FF4004011900F950FA88B
:10201000FEF73CFE002801D072B6FEE713B030BDDB
:10202000704700000148FFF764BA0000E00000209C
:102030000148FFF75EBA000028010020F0B50268F1
:10204000194C1A4D1A4E4FF08047A04205D0B842A5
:1020500003D0A84201D0B04203D122F070034A68F5
:102060001A43A04205D0B84203D0A84201D0B042E2
:1020700003D122F44073CA681A434B6922F08002EC
:102080001A4302608A68C2620A688262A04201D171
:1020900009690163012141610169C90703D001692F
:1020A00021F001010161F0BD002C0140000400405D
:1020B0000008004010B5846842EA032224F47F44FB
:1020C0000A432243826010BD826822F070020A43F4
:1020D00042F007018160704730B5026A036A23F05D
:1020E000010303624368846924F073050C682C4380
:1020F00022F002058A682A430C4DA84206D122F03C
:102100000805CA6842EA050222F0040207D14D69B7
:1021100023F4407345EA03058B6943EA05034360F2
:10212000846149684163026230BD0000002C0140B7
:1021300030B5036A026A22F01002026242688469C2
:102140000D6824F4E64444EA05248D6823F0200356
:1021500043EA05130C4DA84206D1CD6823F0800355
:1021600043EA051323F0400307D14D6922F440628E
:1021700042EA85028D6942EA8502426084614968CB
:102180008163036230BD0000002C014030B5026A5B
:10219000036A23F4807303624368C46922F4007203
:1021A00024F073050C682C438D6842EA05220C4D1F
:1021B000A84206D1CD6822F4006242EA052222F448
:1021C000806207D14D6923F4405343EA05138D69BA
:1021D00043EA05134360C4614968C163026230BDCC
:1021E000002C014030B5046A026A22F48052026277
:1021F0004268C3690D6823F4E64343EA05238D680A
:1022000024F4005444EA0534064DA84204D14D6933
:1022100022F4804242EA85124260C3614968016447
:10222000046230BD002C014010B5046A036A23F03B
:1022300001030362836923F0F00343EA021324F0ED
:102240000A020A438361026210BD10B5036A046A80
:1022500024F010040462846923F0A00324F4704481
:1022600044EA023243EA01118261016210BD10B5F5
:10227000406A0021C185C184FFF702FB10BD0168DF
:102280000C3151E8002F22F4907241E80023002B1A
:10229000F5D10168143151E8002F22F0010241E824
:1022A0000023002BF5D1016B012909D101680C3104
:1022B00051E8002F22F0100241E80023002BF5D155
:1022C000202180F8421000210163704708B590F882
:1022D0004210222901D0022008BD81684FF48053AA
:1022E000994201D1026922B1826A99421BD049B157
:1022F0000AE00268816A5268C2F308020A80816AB1
:10230000891C08E0016971B10168496801F07F0129
:102310001170816A491C8162C18D491E0904090C32
:10232000C18503D01BE001684968F1E70168CA680C
:1023300022F02002CA600168CA6822F48072CA6072
:1023400001684A6922F001024A61202180F84210A6
:1023500000214163026B012A03D0FFF75BFC0020E0
:1023600008BD016301680C3151E8002F22F0100212
:1023700041E80023002BF5D101680A68D20602D596
:102380000A6849680091818DFFF71EFAE7E70000AF
:1023900070B5044600680169E26821F440511143B8
:1023A0000161A16820690143606901432068C26836
:1023B00041F20C639A430A43C26020684169A269F2
:1023C00021F44071114341611E492068884202D1C5
:1023D000FEF77CFD01E0FEF769FD00EBC00101EBBB
:1023E0000011606864228000B1FBF0F3B3FBF2F3EC
:1023F0006FF018067343B1FBF0F5B1FBF0F605EB97
:102400008305322303EB0515B5FBF2F5B6FBF2F6B7
:1024100005F0F00505EB0615B1FBF0F6B1FBF0F0A9
:10242000B0FBF2F06FF01801484306EB800003EBBD
:102430000010B0FBF2F0216800F00F002844886023
:1024400070BD00000038014081628285C285002194
:102450004164222180F84210016921B10168CA68F3
:1024600042F48072CA6001684A6942F001024A611E
:102470000068C16841F02001C16000207047000081
:102480000148FFF711BA000070010020FEE70907BC
:10249000090E002804DB00F1E02080F800147047EA
:1024A00000F00F0000F1E02080F8141D7047FEF7E7
:1024B0005DFBFFF777FDFFF74FFCFFF737FCFFF7FA
:1024C0001BFDFFF7E7FCFFF77FFCFFF749FDFFF778
:1024D00005FCFEE7010202030405060708090A0BD2
:1024E0000C0D0E0F10100000000000000000010293
:1024F00003040607080900000000010203040000AD
:102500002025000800000020240000002801000809
:10251000442500082400002034080000440100087D
:1025200001000000100000000000000000127A000E
:10253000010000000000000000000000000000009A
:042540000000000097
:04000005080000ED02
:00000001FF
